{
  "contractName": "TodoList",
  "abi": [
    {
      "constant": true,
      "inputs": [],
      "name": "taskCount",
      "outputs": [
        {
          "internalType": "uint8",
          "name": "",
          "type": "uint8"
        }
      ],
      "payable": false,
      "stateMutability": "view",
      "type": "function"
    }
  ],
  "bytecode": "0x60806040526000805460ff19169055348015601957600080fd5b506087806100286000396000f3fe6080604052348015600f57600080fd5b506004361060285760003560e01c8063b6cb58a514602d575b600080fd5b60336049565b6040805160ff9092168252519081900360200190f35b60005460ff168156fea265627a7a72315820cc58650d6e9f50cb6005fa9bed962ddef5578fdef739a1d00d066f3c530b83f064736f6c63430005100032",
  "source": "///\r\npragma solidity ^0.5.0;\r\n\r\ncontract TodoList{\r\n    uint8 public taskCount = 0;\r\n}\r\n",
  "sourcePath": "D:\\Documents\\Langara Work\\Solidity Practice\\todolist_eth\\contracts\\TodoList.sol",
  "compiler": {
    "name": "solc",
    "version": "0.5.16+commit.9c3226ce.Emscripten.clang"
  },
  "schemaVersion": "3.4.4",
  "updatedAt": "2021-12-18T06:19:11.293Z",
  "networkType": "ethereum",
  "devdoc": {
    "methods": {}
  },
  "userdoc": {
    "methods": {}
  }
}