{
  "contractName": "TodoList",
  "abi": [
    {
      "anonymous": false,
      "inputs": [
        {
          "indexed": false,
          "internalType": "uint256",
          "name": "id",
          "type": "uint256"
        },
        {
          "indexed": false,
          "internalType": "bool",
          "name": "completed",
          "type": "bool"
        }
      ],
      "name": "TaskCompleted",
      "type": "event"
    },
    {
      "anonymous": false,
      "inputs": [
        {
          "indexed": false,
          "internalType": "uint256",
          "name": "id",
          "type": "uint256"
        },
        {
          "indexed": false,
          "internalType": "string",
          "name": "content",
          "type": "string"
        },
        {
          "indexed": false,
          "internalType": "bool",
          "name": "completed",
          "type": "bool"
        }
      ],
      "name": "TaskCreated",
      "type": "event"
    },
    {
      "constant": true,
      "inputs": [
        {
          "internalType": "address",
          "name": "",
          "type": "address"
        }
      ],
      "name": "users",
      "outputs": [
        {
          "internalType": "uint8",
          "name": "taskCount",
          "type": "uint8"
        }
      ],
      "payable": false,
      "stateMutability": "view",
      "type": "function"
    },
    {
      "constant": true,
      "inputs": [],
      "name": "taskCount",
      "outputs": [
        {
          "internalType": "uint8",
          "name": "",
          "type": "uint8"
        }
      ],
      "payable": false,
      "stateMutability": "view",
      "type": "function"
    },
    {
      "constant": true,
      "inputs": [
        {
          "internalType": "uint8",
          "name": "_id",
          "type": "uint8"
        }
      ],
      "name": "tasks",
      "outputs": [
        {
          "internalType": "uint8",
          "name": "id",
          "type": "uint8"
        },
        {
          "internalType": "string",
          "name": "content",
          "type": "string"
        },
        {
          "internalType": "bool",
          "name": "completed",
          "type": "bool"
        }
      ],
      "payable": false,
      "stateMutability": "view",
      "type": "function"
    },
    {
      "constant": false,
      "inputs": [
        {
          "internalType": "string",
          "name": "_content",
          "type": "string"
        }
      ],
      "name": "createTask",
      "outputs": [],
      "payable": false,
      "stateMutability": "nonpayable",
      "type": "function"
    },
    {
      "constant": false,
      "inputs": [
        {
          "internalType": "uint8",
          "name": "_id",
          "type": "uint8"
        }
      ],
      "name": "toggleCompleted",
      "outputs": [],
      "payable": false,
      "stateMutability": "nonpayable",
      "type": "function"
    }
  ],
  "bytecode": "0x608060405234801561001057600080fd5b5061081b806100206000396000f3fe608060405234801561001057600080fd5b50600436106100575760003560e01c806310807ce01461005c578063111002aa1461007e578063a87430ba14610124578063b6cb58a514610160578063b840ff7a14610168575b600080fd5b61007c6004803603602081101561007257600080fd5b503560ff16610214565b005b61007c6004803603602081101561009457600080fd5b8101906020810181356401000000008111156100af57600080fd5b8201836020820111156100c157600080fd5b803590602001918460018302840111640100000000831117156100e357600080fd5b91908080601f0160208091040260200160405190810160405280939291908181526020018383808284376000920191909152509295506103be945050505050565b61014a6004803603602081101561013a57600080fd5b50356001600160a01b03166105f9565b6040805160ff9092168252519081900360200190f35b61014a61060e565b6101886004803603602081101561017e57600080fd5b503560ff16610625565b6040805160ff8516815282151591810191909152606060208083018281528551928401929092528451608084019186019080838360005b838110156101d75781810151838201526020016101bf565b50505050905090810190601f1680156102045780820380516001836020036101000a031916815260200191505b5094505050505060405180910390f35b33600090815260208190526040902061022b610728565b60ff83811660009081526001848101602090815260409283902083516060810185528154909516855280830180548551600261010096831615969096026000190190911694909404601f8101849004840285018401909552848452909385830193928301828280156102de5780601f106102b3576101008083540402835291602001916102de565b820191906000526020600020905b8154815290600101906020018083116102c157829003601f168201915b50505091835250506002919091015460ff9081161515602092830152604083810180511590528682166000908152600187810185529190208451815460ff1916931692909217825583830151805194955085949293610343939285019291019061074e565b506040918201516002909101805491151560ff199283161790553360009081526020818152908390208554815490931660ff938416179055838301518351928716835215159082015281517fe21fa966ca5cd02748c0752352d18c48165e61cb55b4c29cccf924b5a95fcff1929181900390910190a1505050565b336000908152602081905260409020805460ff8082166001011660ff199091161781556103e9610728565b815460ff90811660009081526001808501602090815260409283902083516060810185528154909516855280830180548551600261010096831615969096026000190190911694909404601f81018490048402850184019095528484529093858301939283018282801561049e5780601f106104735761010080835404028352916020019161049e565b820191906000526020600020905b81548152906001019060200180831161048157829003601f168201915b50505091835250506002919091015460ff9081161515602092830152604080516060810182528654831680825281850189815260008385018190529182526001808a018752939091208251815460ff1916951694909417845551805191965086955092936105119392850192019061074e565b506040918201516002909101805491151560ff1992831617905533600090815260208181528382208654815490941660ff948516179055855484519316808452938301829052606083820181815288519185019190915287517f05d0fb833127fc08168556d0e7ca9554fc3f6bc843b3b7d2bf1c35aea6bab66095948994939092916080840191860190808383885b838110156105b85781810151838201526020016105a0565b50505050905090810190601f1680156105e55780820380516001836020036101000a031916815260200191505b5094505050505060405180910390a1505050565b60006020819052908152604090205460ff1681565b3360009081526020819052604090205460ff165b90565b3360009081526020819052604081206060908290610641610728565b60ff86811660009081526001848101602090815260409283902083516060810185528154909516855280830180548551600261010096831615969096026000190190911694909404601f8101849004840285018401909552848452909385830193928301828280156106f45780601f106106c9576101008083540402835291602001916106f4565b820191906000526020600020905b8154815290600101906020018083116106d757829003601f168201915b50505091835250506002919091015460ff161515602091820152815190820151604090920151909891975095509350505050565b6040518060600160405280600060ff168152602001606081526020016000151581525090565b828054600181600116156101000203166002900490600052602060002090601f016020900481019282601f1061078f57805160ff19168380011785556107bc565b828001600101855582156107bc579182015b828111156107bc5782518255916020019190600101906107a1565b506107c89291506107cc565b5090565b61062291905b808211156107c857600081556001016107d256fea265627a7a7231582085093d56b9ee5376d5842b467c197186ef9f40c660248c93bfef7b434387413664736f6c63430005100032",
  "source": "///\r\npragma solidity ^0.5.0;\r\n\r\ncontract TodoList{\r\n\r\n    mapping (address => User) public users;\r\n\r\n    event TaskCreated(uint id, string content, bool completed);\r\n    event TaskCompleted(uint id, bool completed);\r\n    \r\n    \r\n    struct User{\r\n        uint8 taskCount;\r\n        mapping(uint8 => Task) tasks;\r\n    }\r\n\r\n    struct Task{\r\n        uint8 id;\r\n        string content;\r\n        bool completed;\r\n    }\r\n\r\n    function taskCount() external view returns (uint8){\r\n        uint8 _taskCount = users[msg.sender].taskCount;\r\n        return _taskCount;\r\n    }\r\n\r\n    function tasks(uint8 _id) external view returns (uint8 id, string memory content, bool completed){\r\n        User storage _user = users[msg.sender];\r\n        Task memory _task = _user.tasks[_id];\r\n        return (_task.id, _task.content, _task.completed);\r\n    }\r\n\r\n    function createTask(string memory _content) public{\r\n        users[msg.sender].taskCount++;\r\n        User storage _user = users[msg.sender];\r\n        Task memory _task = _user.tasks[_user.taskCount];\r\n        _task = Task(_user.taskCount, _content, false);\r\n        _user.tasks[_user.taskCount] = _task;\r\n        users[msg.sender] = _user;\r\n        emit TaskCreated(_user.taskCount, _content, false);\r\n    }\r\n\r\n    function toggleCompleted(uint8 _id) public{\r\n        User storage _user = users[msg.sender];\r\n        Task memory _task = _user.tasks[_id];\r\n        _task.completed = !_task.completed;\r\n        _user.tasks[_id] = _task;\r\n        users[msg.sender] = _user;\r\n        emit TaskCompleted(_id, _task.completed);\r\n    }\r\n}\r\n",
  "sourcePath": "D:\\Documents\\Langara Work\\Solidity Practice\\todolist_eth\\contracts\\TodoList.sol",
  "compiler": {
    "name": "solc",
    "version": "0.5.16+commit.9c3226ce.Emscripten.clang"
  },
  "schemaVersion": "3.4.4",
  "updatedAt": "2021-12-25T07:33:33.378Z",
  "networkType": "ethereum",
  "devdoc": {
    "methods": {}
  },
  "userdoc": {
    "methods": {}
  }
}