{
  "contractName": "TodoList",
  "abi": [
    {
      "inputs": [],
      "payable": false,
      "stateMutability": "nonpayable",
      "type": "constructor"
    },
    {
      "constant": true,
      "inputs": [],
      "name": "taskCount",
      "outputs": [
        {
          "internalType": "uint8",
          "name": "",
          "type": "uint8"
        }
      ],
      "payable": false,
      "stateMutability": "view",
      "type": "function"
    },
    {
      "constant": true,
      "inputs": [
        {
          "internalType": "uint8",
          "name": "",
          "type": "uint8"
        }
      ],
      "name": "tasks",
      "outputs": [
        {
          "internalType": "uint8",
          "name": "id",
          "type": "uint8"
        },
        {
          "internalType": "string",
          "name": "content",
          "type": "string"
        },
        {
          "internalType": "bool",
          "name": "completed",
          "type": "bool"
        }
      ],
      "payable": false,
      "stateMutability": "view",
      "type": "function"
    },
    {
      "constant": false,
      "inputs": [
        {
          "internalType": "string",
          "name": "_content",
          "type": "string"
        }
      ],
      "name": "createTask",
      "outputs": [],
      "payable": false,
      "stateMutability": "nonpayable",
      "type": "function"
    }
  ],
  "bytecode": "0x60806040526000805460ff1916905534801561001a57600080fd5b5060408051808201909152601781527f436f6d706c65746520746865206669727374207461736b0000000000000000006020820152610061906001600160e01b0361006616565b610188565b6000805460ff8082166001908101821660ff19938416178085556040805160608101825291841680835260208084018981528484018990529188528481529190962082518154951694909516939093178455935180516100ce939285019291909101906100ed565b50604091909101516002909101805460ff191691151591909117905550565b828054600181600116156101000203166002900490600052602060002090601f016020900481019282601f1061012e57805160ff191683800117855561015b565b8280016001018555821561015b579182015b8281111561015b578251825591602001919060010190610140565b5061016792915061016b565b5090565b61018591905b808211156101675760008155600101610171565b90565b6103ce806101976000396000f3fe608060405234801561001057600080fd5b50600436106100415760003560e01c8063111002aa14610046578063b6cb58a5146100ee578063b840ff7a1461010c575b600080fd5b6100ec6004803603602081101561005c57600080fd5b81019060208101813564010000000081111561007757600080fd5b82018360208201111561008957600080fd5b803590602001918460018302840111640100000000831117156100ab57600080fd5b91908080601f0160208091040260200160405190810160405280939291908181526020018383808284376000920191909152509295506101b8945050505050565b005b6100f661023f565b6040805160ff9092168252519081900360200190f35b61012c6004803603602081101561012257600080fd5b503560ff16610248565b6040805160ff8516815282151591810191909152606060208083018281528551928401929092528451608084019186019080838360005b8381101561017b578181015183820152602001610163565b50505050905090810190601f1680156101a85780820380516001836020036101000a031916815260200191505b5094505050505060405180910390f35b6000805460ff8082166001908101821660ff1993841617808555604080516060810182529184168083526020808401898152848401899052918852848152919096208251815495169490951693909317845593518051610220939285019291909101906102fe565b50604091909101516002909101805460ff191691151591909117905550565b60005460ff1681565b600160208181526000928352604092839020805481840180548651600261010097831615979097026000190190911695909504601f810185900485028601850190965285855260ff909116949193929091908301828280156102eb5780601f106102c0576101008083540402835291602001916102eb565b820191906000526020600020905b8154815290600101906020018083116102ce57829003601f168201915b5050506002909301549192505060ff1683565b828054600181600116156101000203166002900490600052602060002090601f016020900481019282601f1061033f57805160ff191683800117855561036c565b8280016001018555821561036c579182015b8281111561036c578251825591602001919060010190610351565b5061037892915061037c565b5090565b61039691905b808211156103785760008155600101610382565b9056fea265627a7a723158201195a7d4b4bb5491b28940bc2fb3ac594de146d84493ea9bd18a3e59631b6fbf64736f6c63430005100032",
  "source": "///\r\npragma solidity ^0.5.0;\r\n\r\ncontract TodoList{\r\n    uint8 public taskCount = 0;\r\n\r\n    struct Task{\r\n        uint8 id;\r\n        string content;\r\n        bool completed;\r\n    }\r\n\r\n    mapping(uint8 => Task) public tasks;\r\n\r\n    constructor() public{\r\n        createTask(\"Complete the first task\");\r\n    }\r\n\r\n    function createTask(string memory _content) public{\r\n        taskCount++;\r\n        tasks[taskCount] = Task(taskCount, _content, false);\r\n    }\r\n\r\n\r\n}\r\n",
  "sourcePath": "D:\\Documents\\Langara Work\\Solidity Practice\\todolist_eth\\contracts\\TodoList.sol",
  "compiler": {
    "name": "solc",
    "version": "0.5.16+commit.9c3226ce.Emscripten.clang"
  },
  "schemaVersion": "3.4.4",
  "updatedAt": "2021-12-24T02:14:58.840Z",
  "networkType": "ethereum",
  "devdoc": {
    "methods": {}
  },
  "userdoc": {
    "methods": {}
  }
}