{
  "contractName": "TodoList",
  "abi": [
    {
      "inputs": [],
      "payable": false,
      "stateMutability": "nonpayable",
      "type": "constructor"
    },
    {
      "anonymous": false,
      "inputs": [
        {
          "indexed": false,
          "internalType": "uint256",
          "name": "id",
          "type": "uint256"
        },
        {
          "indexed": false,
          "internalType": "bool",
          "name": "completed",
          "type": "bool"
        }
      ],
      "name": "TaskCompleted",
      "type": "event"
    },
    {
      "anonymous": false,
      "inputs": [
        {
          "indexed": false,
          "internalType": "uint256",
          "name": "id",
          "type": "uint256"
        },
        {
          "indexed": false,
          "internalType": "string",
          "name": "content",
          "type": "string"
        },
        {
          "indexed": false,
          "internalType": "bool",
          "name": "completed",
          "type": "bool"
        }
      ],
      "name": "TaskCreated",
      "type": "event"
    },
    {
      "constant": true,
      "inputs": [],
      "name": "taskCount",
      "outputs": [
        {
          "internalType": "uint8",
          "name": "",
          "type": "uint8"
        }
      ],
      "payable": false,
      "stateMutability": "view",
      "type": "function"
    },
    {
      "constant": true,
      "inputs": [
        {
          "internalType": "uint8",
          "name": "",
          "type": "uint8"
        }
      ],
      "name": "tasks",
      "outputs": [
        {
          "internalType": "uint8",
          "name": "id",
          "type": "uint8"
        },
        {
          "internalType": "string",
          "name": "content",
          "type": "string"
        },
        {
          "internalType": "bool",
          "name": "completed",
          "type": "bool"
        }
      ],
      "payable": false,
      "stateMutability": "view",
      "type": "function"
    },
    {
      "constant": false,
      "inputs": [
        {
          "internalType": "string",
          "name": "_content",
          "type": "string"
        }
      ],
      "name": "createTask",
      "outputs": [],
      "payable": false,
      "stateMutability": "nonpayable",
      "type": "function"
    },
    {
      "constant": false,
      "inputs": [
        {
          "internalType": "uint8",
          "name": "_id",
          "type": "uint8"
        }
      ],
      "name": "toggleCompleted",
      "outputs": [],
      "payable": false,
      "stateMutability": "nonpayable",
      "type": "function"
    }
  ],
  "bytecode": "0x60806040526000805460ff1916905534801561001a57600080fd5b5060408051808201909152601781527f436f6d706c65746520746865206669727374207461736b0000000000000000006020820152610061906001600160e01b0361006616565b61023d565b6000805460ff8082166001908101821660ff19938416178085556040805160608101825291841680835260208084018981528484018990529188528481529190962082518154951694909516939093178455935180516100ce939285019291909101906101a2565b50604091820151600291909101805460ff191691151591909117905560008054825160ff9091168082529281018290526060602080830182815286519284019290925285517f05d0fb833127fc08168556d0e7ca9554fc3f6bc843b3b7d2bf1c35aea6bab660959487949093909290916080840191860190808383885b8381101561016357818101518382015260200161014b565b50505050905090810190601f1680156101905780820380516001836020036101000a031916815260200191505b5094505050505060405180910390a150565b828054600181600116156101000203166002900490600052602060002090601f016020900481019282601f106101e357805160ff1916838001178555610210565b82800160010185558215610210579182015b828111156102105782518255916020019190600101906101f5565b5061021c929150610220565b5090565b61023a91905b8082111561021c5760008155600101610226565b90565b6106508061024c6000396000f3fe608060405234801561001057600080fd5b506004361061004c5760003560e01c806310807ce014610051578063111002aa14610073578063b6cb58a514610119578063b840ff7a14610137575b600080fd5b6100716004803603602081101561006757600080fd5b503560ff166101e3565b005b6100716004803603602081101561008957600080fd5b8101906020810181356401000000008111156100a457600080fd5b8201836020820111156100b657600080fd5b803590602001918460018302840111640100000000831117156100d857600080fd5b91908080601f01602080910402602001604051908101604052809392919081815260200183838082843760009201919091525092955061035f945050505050565b61012161049b565b6040805160ff9092168252519081900360200190f35b6101576004803603602081101561014d57600080fd5b503560ff166104a4565b6040805160ff8516815282151591810191909152606060208083018281528551928401929092528451608084019186019080838360005b838110156101a657818101518382015260200161018e565b50505050905090810190601f1680156101d35780820380516001836020036101000a031916815260200191505b5094505050505060405180910390f35b6101eb61055a565b60ff82811660009081526001602081815260409283902083516060810185528154909516855280830180548551600261010096831615969096026000190190911694909404601f81018490048402850184019095528484529093858301939283018282801561029b5780601f106102705761010080835404028352916020019161029b565b820191906000526020600020905b81548152906001019060200180831161027e57829003601f168201915b50505091835250506002919091015460ff908116151560209283015260408381018051159052858216600090815260018085529190208451815460ff19169316929092178255838301518051949550859492936102fe9392850192910190610580565b50604091820151600291909101805460ff191691151591909117905581810151815160ff85168152901515602082015281517fe21fa966ca5cd02748c0752352d18c48165e61cb55b4c29cccf924b5a95fcff1929181900390910190a15050565b6000805460ff8082166001908101821660ff19938416178085556040805160608101825291841680835260208084018981528484018990529188528481529190962082518154951694909516939093178455935180516103c793928501929190910190610580565b50604091820151600291909101805460ff191691151591909117905560008054825160ff9091168082529281018290526060602080830182815286519284019290925285517f05d0fb833127fc08168556d0e7ca9554fc3f6bc843b3b7d2bf1c35aea6bab660959487949093909290916080840191860190808383885b8381101561045c578181015183820152602001610444565b50505050905090810190601f1680156104895780820380516001836020036101000a031916815260200191505b5094505050505060405180910390a150565b60005460ff1681565b600160208181526000928352604092839020805481840180548651600261010097831615979097026000190190911695909504601f810185900485028601850190965285855260ff909116949193929091908301828280156105475780601f1061051c57610100808354040283529160200191610547565b820191906000526020600020905b81548152906001019060200180831161052a57829003601f168201915b5050506002909301549192505060ff1683565b6040518060600160405280600060ff168152602001606081526020016000151581525090565b828054600181600116156101000203166002900490600052602060002090601f016020900481019282601f106105c157805160ff19168380011785556105ee565b828001600101855582156105ee579182015b828111156105ee5782518255916020019190600101906105d3565b506105fa9291506105fe565b5090565b61061891905b808211156105fa5760008155600101610604565b9056fea265627a7a723158207e2bef99abd5fd36ca893fa127e11f9510dcca180202d1f5e355c65603a7dc4764736f6c63430005100032",
  "source": "///\r\npragma solidity ^0.5.0;\r\n\r\ncontract TodoList{\r\n    uint8 public taskCount = 0;\r\n\r\n    event TaskCreated(uint id, string content, bool completed);\r\n    event TaskCompleted(uint id, bool completed);\r\n\r\n\r\n    struct Task{\r\n        uint8 id;\r\n        string content;\r\n        bool completed;\r\n    }\r\n\r\n    mapping(uint8 => Task) public tasks;\r\n\r\n    constructor() public{\r\n        createTask(\"Complete the first task\");\r\n    }\r\n\r\n    function createTask(string memory _content) public{\r\n        taskCount++;\r\n        tasks[taskCount] = Task(taskCount, _content, false);\r\n        emit TaskCreated(taskCount, _content, false);\r\n    }\r\n\r\n    function toggleCompleted(uint8 _id) public{\r\n        Task memory _task = tasks[_id];\r\n        _task.completed = !_task.completed;\r\n        tasks[_id] = _task;\r\n        emit TaskCompleted(_id, _task.completed);\r\n    }\r\n}\r\n",
  "sourcePath": "D:\\Documents\\Langara Work\\Solidity Practice\\todolist_eth\\contracts\\TodoList.sol",
  "compiler": {
    "name": "solc",
    "version": "0.5.16+commit.9c3226ce.Emscripten.clang"
  },
  "schemaVersion": "3.4.4",
  "updatedAt": "2021-12-25T03:08:00.907Z",
  "networkType": "ethereum",
  "devdoc": {
    "methods": {}
  },
  "userdoc": {
    "methods": {}
  }
}